:040000006F00100578
:10000400000000000000000090000020B003002069
:10001400A9BDF9F5940000200000000000000000D4
:10002400960000209800002000000000000000005E
:10003400F8010020000000009C00002000000000E7
:10004400C6000020A0000020A2000020A400002080
:10005400A6000020A8000020AA000020AC00002078
:10006400AE000020D0010020B2000020B400002027
:10007400B6000020B8000020BA000020BC00002018
:10008400BE000020C000002068010020C400002041
:1000940001A001A001A001A001A001A001A001A054
:1000A40001A001A001A001A001A001A001A001A044
:1000B40001A001A001A001A001A001A001A001A034
:1000C40001A001A001A03727004083476700858B6A
:1000D40081C785472303F700138701A75C5738437B
:1000E400850723AEF1A8914663E6E60297C600E0D1
:1000F400938646F00A0736971843369702871947BE
:10010400637AF70023AE01A8854723A8F1AA19A0B2
:1001140023AE01A8730020300947E37DF7FE8D4725
:10012400EDB71947E378F7FE83C701AA85CF23808B
:1001340001AA23AE01A823A201AC854723A8F1AAF2
:1001440083C7D184FD17E207E187A386F184E343E3
:10015400F0FC372700408347070093F7B70F2300CD
:10016400F7004DBF9147D9BF37470040834747C089
:100174009946BD8B6382D702411122C63147374469
:1001840000406381E7041147374400406380E7027D
:100194003244410173002030834757C0730020303C
:1001A400034584C0972000E0E780A0F68347A4C0FD
:1001B40093F7F70FF5F7E9BF034584C0972000E0F4
:1001C400E78020F58347A4C093F7F70FF5F7C9B785
:1001D400B737004003C76780058B09CF03C7078083
:1001E4001377B70F2380E78005472383E78085478C
:1001F40023AEF18473002030138781861C4350435F
:1002040093861700B3B7F600B2975CC314C3B7F76D
:1002140000E023A2070073002030B71700409306C4
:1002240070052380D704130780FA2380E7040100B4
:10023400010003C6B7041376F60DA385C704238013
:1002440007041376050259CE03C6A700118A1DE2DE
:100254002380D7042380E7040100010003C7A7001B
:10026400136747002385E7009307004B0100010053
:10027400FD17EDFFB7170040930670052380D704E0
:10028400130780FA2380E704010001007D89239489
:10029400A70001000100010001002380070423805E
:1002A400D7042380E70401000100372700409306A8
:1002B4001005A303D78023800704B7170040130752
:1002C40070052380E704130780FA2380E704010004
:1002D400010003C7B70413670708A385E704238055
:1002E40007048280137605042DCA03C6A700418A39
:1002F4001DE22380D7042380E7040100010003C723
:10030400A700136707012385E7009307007D010019
:100314000100FD17EDFFB717004093067005238019
:10032400D704130780FA2380E704010001007D89C4
:10033400136505042394A7000100010001000100D6
:10034400238007042380D7042380E70401000100ED
:100354003727004093062005A9BF2380D7042380B4
:10036400E7040100010003D787001367070C2394F7
:10037400E700A1B74111814601468145114506C6F2
:10038400B12AB7170040130770052380E704130749
:1003940080FA2380E7040100010003C767041367A0
:1003A40017002383E70423800704B24041018280BD
:1003B40081460146814511451522B71700401307B0
:1003C40070052380E704130780FA2380E704010003
:1003D40001007D572396E70203C7670413671700DC
:1003E4002383E7042380070401A0BD473305F502F6
:1003F40001007D1575FD8280411122C426C206C606
:10040400AA84014463179400B240224492444101F7
:10041400828005041305803E4204C13F4180DDB75C
:100424002303048015472303E48001002302A480EE
:10043400828083076480E3CE07FE230304808280E6
:1004440083076480E3CE07FE0345448082808307EC
:100454006480E3CE07FE2302A4808280411126C477
:100464004AC24EC006C61377F50BAD47AA892E893A
:1004740095446306F70019456537653F8D444E85FD
:100484004537FD59FD1463983401B240A244124922
:10049400824941018280135509011375F50F453FC7
:1004A4002209CDB7011126CC06CEB7040800513776
:1004B4001545BD37713769372AC6A53F324593774D
:1004C400150089EB136515001375F50FF240E2442E
:1004D40005618280FD14E9FC0145CDBF397126DC3C
:1004E4004ADA4ED852D656D45AD25ED006DE62CEFE
:1004F40066CCB7E700E07D5783AA070022C603AAAB
:10050400470023A0E71823A2E718B71700401307F2
:1005140070052380E704130780FA2380E70483C768
:100524004704930B75FFB684E20793FBFB0F8546E4
:10053400AA892E8B328937240040E187015763FA58
:1005440076016308D5008946130700026313D500BA
:100554000157D98F93F7F70FB71C00402382FC048F
:1005640011472303E4801305F00F5D3D094CD13599
:10057400636D7C11B7050700DA9537870700795555
:1005840063F2E504B3879500636EF702370B080046
:10059400A94733EB65016399F90689E48144513D28
:1005A40026850DA0DA850945553D05090345F9FF62
:1005B400FD14050B693D81C49377FB0FFDF7DD3511
:1005C40069FD7D55B7170040130770052380E704C4
:1005D400130780FA2380E70403C74704418B23826F
:1005E400E704F250B7E700E023A0571123A2471114
:1005F400E25432445259C259325AA25A125B825BB3
:10060400724CE24C21618280A5476395F9068569A5
:100614001309F00FB3069900B3742B01B694134970
:10062400F9FFB3749900856B33796901416B938742
:10063400F9FFB3F7270199E363FC340193D9490027
:10064400C147E3E637FF99BF0569C1697D19D9B789
:100654001305800D63886901130500026384790121
:1006640013051008CA85DD3B353D21DD4E99B38461
:100674003441D9B7DA852D45D533CA94E30099F2CC
:1006840005097D3BA30FA9FED5BF9387F9FF93F717
:10069400F70F6361FC0C83C71C0413073008631F46
:1006A400F70437070800636BEB04B3079B00B70636
:1006B400100063F5D704334BEB0089476393F906C5
:1006C4008980D549E38C04ECDA850945413B11095D
:1006D4000327C9FF91472320E48003076480E34E86
:1006E40007FE23033481FD17EDFBFD14110B81C4B8
:1006F4009377FB0FE9FF7D3371F5E1B5B717004040
:1007040003C75704B70708001377070219E3B7872D
:1007140007007955E378FBEA33079B00E3FFE7F82A
:1007240055B58547E382F9F2DA852D45053B938972
:10073400F4FFE38504E6293393F7390091EB83262C
:1007440004800327090093074900E39AE6E43E89FD
:10075400CE84F1BFB5476396F9001305900BC931F8
:1007640035BDB1471305B00AE38BF9FE9947639190
:10077400F904B7050800B365BB002D45C5318144B4
:100784008D4BA14975396396740183270480232016
:10079400F9008504E39834FF8327048013172B01A1
:1007A400635507002312F900D5BB2322F900FDB3DA
:1007B4009D476399F90281451305B0044531BD4451
:1007C4002320090023220900FD599D3993F7740061
:1007D400CA9703C70700FD14398D2380A700E39649
:1007E40034FF6DBBA1476392F9046D398144630DF5
:1007F4000B008D479304C0036308FB0093040005BA
:1008040063048B01930440041375C507E30895D86A
:100814001945393139390545213126850D390945BF
:100824003D314931E31C05D669BB91476399F90011
:1008340013056006F536F53E130590090DB7E38FF1
:0808440009D4F154A9BB000026
:1008500097110020938101A5177100201301817A5F
:100860001305400097F5FF1F9385C57917060020F3
:100870001306C6FD63FAC5008322050023A05500B8
:1008800011059105E3EAC5FE17E500001305456F64
:1008900097050020938585FB1386018163FAC500C7
:1008A0008322050023A0550011059105E3EAC5FE4A
:1008B000138501849385C1196377B5002320050052
:1008C0001105E36DB5FEFD42739002BC8D4273903D
:1008D00042809302800873A0023097F2FF1F938238
:1008E000627293E23200739052309712000093824A
:1008F00082B773901234730020303D432A876373AC
:10090000C3029377F700BDEFADE5937606FF3D8A0E
:10091000BA960CC34CC30CC74CC74107E36BD7FE58
:1009200011E28280B306C3408A06970200009696C1
:100930006780A6002307B700A306B7002306B70009
:10094000A305B7002305B700A304B7002304B7002D
:10095000A303B7002303B700A302B7002302B70025
:10096000A301B7002301B700A300B7002300B7001D
:10097000828093F5F50F93968500D58D93960501AA
:10098000D58D61B7939627009702000096968682D0
:10099000E78086FA9680C1171D8F3E96E374C3F8F0
:1009A000A5B79317050141815D8D3707FF00935768
:1009B00085001307F70FF98F370701FF130707F0BB
:1009C0002205798D5D8D37170F0F9357450013075B
:1009D000F7F0F98F37F7F0F01307070F1205798D4D
:1009E0005D8D373733339357250013073733F98F2E
:1009F00037D7CCCC1307C7CC0A05798DC98F3757A9
:100A0000555513D5170013075755798D37B7AAAA2F
:100A100086071307A7AAF98F5D8D9D47638BF502A3
:100A200063EDB7009547638AF50263E6B702914725
:100A300071816385F50201458280C1476389F500B4
:100A400093070002638CF500A1476181DDB7418106
:100A5000828065818280698182806D8182800111BE
:100A600022CC26CA06CE2E84B384070139C2914512
:100A70003EC63AC43D372247B2471375F50F639916
:100A8000970033458700F2406244D244056182807A
:100A9000850783C6F7FF358CA146137614000580C1
:100AA00001C6298C1374F40FFD1693F6F60FF5F6B4
:100AB000F9B7939645009318450093F6F60F93F80F
:100AC000F80F63969700918233C5E6006DBF8507E6
:100AD00003C6F7FFB18E214693958601E185860610
:100AE00093F6F60F63D40500B3C616017D16137690
:100AF000F60F7DF2F9B7011122CC26CA06CE2E845C
:100B0000B384070139C295453EC63AC4593D2247D0
:100B1000B2471375F50F6399970033458700F2408C
:100B20006244D24405618280850783C6F7FF358C15
:100B3000A14613761400058001C6298C1374F40FA6
:100B4000FD1693F6F60FF5F6F9B793963500931860
:100B5000350093F6F60F93F8F80F639697008D82A1
:100B600033C5E6006DBF850703C6F7FFB18E21468A
:100B700093958601E185860693F6F60F63D405000A
:100B8000B3C616017D161376F60F7DF2F9B7011183
:100B900022CC26CA06CE2E84B384070139C29945D9
:100BA0003EC63AC4FD3B2247B2471375F50F639921
:100BB000970033458700F2406244D2440561828049
:100BC000850783C6F7FF358CA14613761400058090
:100BD00001C6298C1374F40FFD1693F6F60FF5F683
:100BE000F9B7939625009318250093F6F60F93F81E
:100BF000F80F63969700898233C5E6006DBF8507BD
:100C000003C6F7FFB18E214693958601E1858606DE
:100C100093F6F60F63D40500B3C616017D1613765E
:100C2000F60F7DF2F9B7011122CC26CA06CE2E842A
:100C3000B384070139C29D453EC63AC49D3322475D
:100C4000B2471375F50F6399970033458700F2405B
:100C50006244D24405618280850783C6F7FF358CE4
:100C6000A14613761400058001C6298C1374F40F75
:100C7000FD1693F6F60FF5F6F9B79396150093184F
:100C8000150093F6F60F93F8F80F63969700858298
:100C900033C5E6006DBF850703C6F7FFB18E214659
:100CA00093958601E185860693F6F60F63D40500D9
:100CB000B3C616017D161376F60F7DF2F9B779717A
:100CC00022D426D24AD04ECE06D6AA892E84BA8401
:100CD000338907016311F90291C62285A145D131FB
:100CE0001374F50F33459400B250225492540259B4
:100CF000F2494561828003C50700850715CAA145F1
:100D00003EC636C432C271391246A246B247298C59
:100D10001374F40FA145131784016187060413743B
:100D2000F40F6354070033C48900FD15EDF55DB77A
:100D3000298CCDB7797122D426D24AD04ECE06D690
:100D4000AA892E84BA84338907016312F90299C6ED
:100D50002285C145B9311314050141803345940002
:100D6000B250225492540259F2494561828003C51F
:100D7000070085071DCAA1453EC636C432C21531DB
:100D80002205298C1246A246B24742044180A14561
:100D9000131704010604420441874180635407008D
:100DA00033C48900FD15EDF54DB72205298CC5B773
:100DB000797122D426D24AD04ECE06D6AA892E8464
:100DC000BA84338907016311F90291C6228593051C
:100DD0000002C13E2A8433459400B25022549254FA
:100DE0000259F2494561828003C5070085070DC697
:100DF000A1453EC636C432C26D361246A246B2473F
:100E00006205298CA14522870604635407003344F8
:100E10003401FD15EDF945BF6205298CE5B7411197
:100E200006C6034705009D46AE873288630AD70889
:100E300063EEE6009546630DD70463E7E606914648
:100E4000630CD7020145B24041018280C14663056F
:100E5000D70893060002630DD708A146E314D7FE16
:100E6000034705018346D5000346C5008345850039
:100E700003454500A935C1BF034705018346D50099
:100E80000346C5008345850003454500C93E65BF4F
:100E9000034705018346D5000346C5008345850009
:100EA00003454500893945B7034705018346D50009
:100EB0000346C5008345850003454500C93961B730
:100EC000034705018346D5000346C50083458500D9
:100ED00003454500893B85BF035705018346D5007F
:100EE0000346C5008355850003554500A135A1BFC4
:100EF00018498346D5000346C5000C45B240484119
:100F000041017DB571CA757126C34AC1CEDED2DCFE
:100F1000D6DADAD8DED6E2D4E6D2EAD0EECE06C70A
:100F200022C52A892E8AB284B689C14A97BB00009D
:100F3000938BCB0E054B094C914C154D97BD000082
:100F4000938D4D11268463F39A00414442044180FD
:100F5000740801473306EA00034606003685DE853D
:100F60003AC636C4EF6010783247A2467C080507BF
:100F70008D06E34187FE3E86CA8517B5000013053E
:100F8000650A6385690317B500001305650A638F59
:100F9000890117B500001305650A6389990117B522
:100FA00000001305650A6383A9016E85818CC20464
:100FB000C180EF404008229AD1F4BA402A449A44B2
:100FC0000A49F659665AD65A465BB65B265C965C69
:100FD000065DF64D496182808280D8418946630B67
:100FE000D70095476366D7008D476308F7008147B0
:100FF0003E85828023120600DDBF98419147E318A9
:10100000F7FE75D57C45411122C426C206C62E8442
:10101000AA8499C783D5A50003558400829701E966
:10102000BC4891C78355A400035584008297B24001
:101030002244814792443E8541018280DC4191C730
:1010400009476386E7020D45828003D7850097062E
:10105000002083D626A51545636AD7009707002090
:1010600083D767A4B6976353F7000145828083D77F
:1010700085009706002083D6E6A2014763EBD702DE
:101080009705002083D525A2B69563D4B702958F26
:1010900017070020130707A1C2075843C18393D63F
:1010A00037003697034707009D8BB357F74013F778
:1010B00017002312E60055BF7D15854763E8A7009A
:1010C0000605938741843E952310B5008280DC415C
:1010D0002320060091C70947638EE70015458280EB
:1010E00083D7850005470145FD17C207C183E36724
:1010F000F7FE828083D7850085460147FD179395CB
:101100000701C18163E8B600138741848607BA9757
:1011100003D707002312E6000145E1BF23A20184A3
:10112000828017B700001307A7F317B60000130655
:10113000A6F783574700636EF50083566700BE9697
:101140006379D5001447B307F5408607B697239017
:10115000B7003107E31FC7FC828017B700001307F1
:1011600027F08147BA861948035647006362C502D3
:1011700083556700B295637DB5003147B387E702B9
:10118000118D0605B6979C473E9503550500828054
:1011900085073107E39A07FD01458280D841232066
:1011A000060085466300D7081DC7411122C426C228
:1011B0004AC006C6894732892E84AA84630AF70486
:1011C0008D47630EF70A8147B24022449244024998
:1011D0003E854101828098418D476319D70283D6AD
:1011E000850097B700009387A7E797B50000938520
:1011F000A5EB03D6470063E7C60003D76700329725
:1012000063C8E606B107E396F5FE95473E85828002
:1012100098418D47E31AD7FA03D585003D3F231245
:10122000A90055B794418D47E392E6FE83D585002A
:1012300017B700001307C7E28147BA8699480358D9
:10124000470063E9050303566700429663D4C5026D
:101250003147B387E702B697984385468147E3074E
:10126000D7FA89469547E313D7FA0347150359DFA1
:10127000814769BF85073107E39317FD79B7984127
:101280008D47E313D7F439E9835684000355A4004E
:1012900017B700001307C7DC97B500009385C5E0BA
:1012A0008357470063EEF600035667003E9663F9E6
:1012B000C6001047B387F6408607B2972390A70071
:1012C0003107E39FE5FCE38004F0BC44E38D07EEC7
:1012D0008355A400035584008297F5B57C41CDD792
:1012E00083D5A500035584008297E31E05EC69BFF2
:1012F0003D479387018E6364B7008D8FC1074147D7
:101300002E866373B70041464206AA8541823E8518
:101310006F50704A411122C426C206C617B400009D
:10132000130404D497B40000938404D803566400D3
:101330000844814506063104EFF02FDCE31894FEE3
:1013400081450545F93B2244B2409244C5450945D3
:101350004101C1BB01118146500081451D4506CEAA
:1013600022CC26CA4AC802C202C42316010097F042
:10137000FF1FE780E01617B50000130525DEEF30EC
:10138000904B014417B90000130949C9A1445C00FE
:10139000A29783C507004A850504EF30D049E318BA
:1013A00094FE17B50000130525DCEF30104BF2401A
:1013B0006244D24442490145056182804111B71718
:1013C000004006C622C403C4470417B50000130535
:1013D000E5D1EF3050461374F40F93777400FD1786
:1013E00093F7F70F194717B500001305A5D0636FE2
:1013F000F70017B70000130727CB8A07BA979C435B
:10140000BA97828717B50000130585CFEF30B04239
:1014100017B50000130545D4EF303044B2402244E4
:1014200001454101828017B500001305E5CDF9BFE4
:1014300017B50000130585CDD1BF17B50000130502
:10144000E5CDE9B717B50000130545CEC1B717B50F
:1014500000001305A5CE5DBF17B500001305C5CE6E
:1014600075B741111305800406C622C426C24AC0BE
:1014700097F0FF1FE780A0DAEF20B06B3714004031
:101480008327840A85451305001093E7072023244A
:10149000F40AEF20D06F8D4513050020EF20306F48
:1014A000EF3080348D4537050400EF20B078832776
:1014B000840C37070400D98F2324F40C013717B5A7
:1014C0000000130525C0EF3050396935EF10E053A7
:1014D000EF10C006EF10A00FEF108068EF10E007CC
:1014E000EF10B0131926392CEF1010041304703EBE
:1014F00001458145EF20306899E16375A40417B573
:101500000000130525BDEF30503501448144130917
:10151000703EEF1080042285A685EF20D06599E10A
:10152000637FA900EF2090641306803E81462A84E1
:10153000AE84EF30D037058919C1EF109042EF101B
:101540001001C1BF01006DB71385018182807971DF
:101550004ECED149B309350322D426D24AD052CC3B
:1015600056CA5AC85EC606D6001897F4FF1F938461
:10157000E42DA69903A989002A8AAE8B9317190036
:10158000BD07C19B3301F14083A7C900B28A0A8B12
:10159000B1C30A86D6855E858297635A050403D651
:1015A000090097B500009385E5C617B5000013053F
:1015B000A5C6EF305028FD57130104FDB2503E85FB
:1015C000225492540259F249624AD24A424BB24BD7
:1015D000456182804A8681450A85EFF00FB24A86CE
:1015E00063D32A015686DE855A85EF50D01CD14739
:1015F000330AFA02DA85D294904403D50400EF202E
:10160000D0048147E35A05FA03D6040097B50000D9
:10161000938545C017B500001305C5C159BF1DCD41
:10162000411106C683C7C1849DE317B600001306A7
:10163000E6B397B500009385E5BD17B50000130527
:1016400025B6EF30501F7D55B240410182802146C2
:101650009385C19DEF5030160145FDB77D558280C1
:1016600019E17D558280411122C406C683C7C18419
:101670002A8485E717B60000130646B097B5000028
:10168000938545B917B50000130585B1EF30B01A41
:101690007D55B240224441018280AA8521461385AE
:1016A000C19DEF50F00E75D52146A2850545453503
:1016B000E34005FE2146A2851385C19DEF50B00F82
:1016C0000145C1BF15CD83C7C1848DE7411117B650
:1016D00000001306E6AB97B500009385A5B317B5D8
:1016E00000001305E5AB06C6EF30F014B2407D559F
:1016F0004101828083C7819D2300F50001458280DE
:101700007D55828003C7C1848147631E070C011188
:1017100006CE22CC26CA4AC84EC652C456C2EF20B4
:10172000E03AFD576340050A1306C003814513855F
:10173000819DEFF08F9C8547238CF19C896793876F
:10174000075823AEF19CA1472380F19E17F4FF1F99
:101750001304C40F17F9FF1F1309091397B40000EE
:10176000938444AB97B90000938909A917BA000084
:10177000130A4AA497BA0000938A4AA610444C4020
:1017800003550400EF20B02F634AA0040356040061
:10179000A68539E15285EF30100A10444C400355BC
:1017A0000400EF20806A635B050203560400A685EF
:1017B0005685EF3050085104E31224FD85472386F7
:1017C000F1848147F2406244D2444249B249224AFC
:1017D000924A3E85056182804E85E1BF1C48E1DF6B
:1017E00022858297C9BF3E858280938741A1138756
:1017F00041A298C3138761A3D8C3138781A498C754
:101800001387A1A5D8C7014582800CC123220500FA
:10181000232405002326050001458280411122C4AE
:1018200026C206C62A84AE8499C58347E500B384E0
:10183000F500C204C1801C40A68522858297894795
:101840006303F50081EC2322040023240400231603
:101850000400B24022449244410182800347F400D4
:101860005C4023169400BA971CC4E5B72E868145C8
:1018700075B7105141055DB7C16769768146FD179F
:1018800005061397060141836364B7003E85828095
:101890003307D50003470700B98F214713F8170016
:1018A000858363050800B18FC207C1837D17137755
:1018B000F70F6DF78506F1B70CC118C52306F500C3
:1018C00050C123200502B685410581B70C51410561
:1018D00071BF5C41411122C426C24AC006C62A8497
:1018E000AE84328991C382978945228559378147D1
:1018F00009C913E58700B2402244924402494101DC
:101900008280184C93E404F83E8523009700184C1D
:10191000A3002701CDB75D7186C6A2C4A6C2CAC006
:101920004EDE52DC56DA5AD85ED69547638FF60003
:101930000D464537B640264496440649F259625A48
:10194000D25A425BB25B616182809387F5FF93F765
:10195000F70F0D47AE8A6362F718834436000347DA
:1019600046002A89A204D98CC204C184939B040135
:1019700093DB0B01638D0B009396170017D70000C4
:101980001307075F369703570700637377030D4606
:10199000D6854A853D3F2A849377350009811375A2
:1019A000F50371985D8C0A05137434F0418D59B7B5
:1019B00083491600034726000946A209B3E9E90056
:1019C000416733077741E34737FD17D70000130717
:1019D000A75A3E97034A070017D700001307075975
:1019E000BA9783C7070002CA231D01003EC8230E11
:1019F000B100014BB3876901231CF1008327090063
:101A000030000C084A85829719C1114651B7224609
:101A100041F2050B420B135B0B01E39D6BFD86044A
:101A200063050A0093047B008D8493F4F40F93857F
:101A300024004A853D3D45E58327890123805701E0
:101A400083278901A3809700814713F7F70F63610C
:101A5000970689473ECA814A854BB3875901231CA3
:101A6000F1008327090030000C084A8593940A018D
:101A70008297C180832789018356C100850A630448
:101A80000A0413D734009D880907B3949B00BA97C2
:101A9000E20403870700E1849DC2D98C238097006C
:101AA00093970A01C183E3EA67FB01458147D5BDEE
:101AB000032789013E9723010700850779B793C45F
:101AC000F4FFF98CE1BF13971A00BA9713D7860079
:101AD0002380E700A380D700E1B70D45C1BF0945CA
:101AE000F1B7397106DE22DC26DA4AD84ED652D456
:101AF00056D25AD09547638EF6000D46D93BF25028
:101B00006254D2544259B259225A925A025B21610C
:101B10008280AA842E8A91476383D5008547834AB1
:101B200016000347260003493600A20AB3EAEA007A
:101B3000034746002209C20A3369E900420993DAE1
:101B40000A4113590941139B0A01931909011147CD
:101B5000135B0B0193D90901639AE70063880900BD
:101B60004167130707F00D46639AE90205473ACA31
:101B70003EC8231C610191464E876394D7003337DA
:101B800030019C403000231DE100230E41010C0870
:101B900026858297114619E122460DC2D2852685F7
:101BA0000D3B2A849377350009811375F5037198ED
:101BB0005D8C0A05137434F0418D91B78D473ECA90
:101BC0009C400C0830002685829795452685553126
:101BD00005E59C4C135B8B0093D98900238047015A
:101BE0009C4CA3806701238157019C4CA381370142
:101BF00023822701814765BF0945EDBF1D71A2CC36
:101C00005EDE86CEA6CACAC8CEC6D2C4D6C2DAC0E6
:101C100062DC66DA6AD86ED695472A84AE8B63E5B5
:101C2000D7020D46DE8522856D31F6406644D644E6
:101C30004649B649264A964A064BF25B625CD25C3C
:101C4000425DB25D25618280BD47328A6380F50CBA
:101C5000054D9307B00703475A0061D7E916E31211
:101C6000D7FC83443A0083464A00A204D58CC204C0
:101C7000C184139B0401135B0B01E3040BFAE3E241
:101C800067FB914693171B006315DD0093077B00EC
:101C90008D87E318F7F803491A0083472A0009469D
:101CA00022093369F90042091359094193190901BD
:101CB000C16793D90901B3876741E3C537F7854702
:101CC000930C6A006AC83ECA230E7101E68D014C6E
:101CD0001147B3878901231CF100631FED0293575D
:101CE0003C00C207C183D29783C7670093767C000C
:101CF000B3D7D740858B231DF1001C4030000C0862
:101D000022858297114705C1114629BF114D9307BE
:101D1000007B91B7568C75BF83C70D0083C61D002D
:101D2000A207D58FC9BF2246E31E06EE930A1C0008
:101D3000C20A93DA0A01890DE31E5BFD8D473ECA94
:101D4000014B914DB3876901231CF1006316BD055A
:101D500093573B00C207C183D29783C767001377AD
:101D60007B00B3D7E740858B231DF1001C4030007A
:101D70000C082285829793071B00C207C183890C38
:101D8000631A6C0195452285ED34814709CD13E531
:101D9000870061BD3E8B7DB783C70C0003C71C0065
:101DA000A207D98FD1B7184C93D9890093DA8A004A
:101DB00023007701184C3E85A3003701230127013A
:101DC000184CA30157012302970085B55D7186C6A3
:101DD000A2C4A6C2CAC04EDE52DC56DA5AD85ED6BB
:101DE00062D466D26AD09D476382F6020D46D5342E
:101DF000B640264496440649F259625AD25A425B8A
:101E0000B25B225C925C025D61618280034A1600D3
:101E100083472600054C220A336AFA00420A135A05
:101E20000A41931B0A011C4193DB0B01AE8A034D4F
:101E3000460083493600834C660003495600230E52
:101E4000B10062C802CA231C7101231D01003000C9
:101E50000C08AA84829719C1114619A022460DC206
:101E6000D6852685BD342A8493773500098113757C
:101E7000F50371985D8C0A05137434F0418D8DBFA4
:101E800089473ECA9C40A20930000C08B3E9A90169
:101E900026858297C209220993D90941336999019C
:101EA0008357C100139B09014209135B0B011359AE
:101EB000094113C7F9FFB377FB003377E900D98FE6
:101EC000231DF1009C4062CA30000C0826858297D1
:101ED00041F5224651F68D473ECA9C400C08300021
:101EE000268582979D452685EFF0BF980DED9C4C89
:101EF00093DB8B00135B8B00238057019C4CA380EA
:101F00007701238147019C4CA3816701238237011C
:101F1000984C93170901C183A183A302F7002303FF
:101F200027018147B9B70945EDBF2E888348C50011
:101F300083C50500B2868147139707014183636516
:101F4000170105466FF0FF9818451396370085076F
:101F5000329703460700E311B6FE0323470042868B
:101F600002839387C6FFC207C1831307C00F63684C
:101F7000F70C011152C4138AE6FF4EC6AE899315C1
:101F80000A0122CC26CA4AC806CE56C23289AA8481
:101F9000C18132854A9A3684834A0600EFF0DF8D8C
:101FA00083471A0003470A00A207D98F631EF5086A
:101FB00063860A001305D002639F5903930730100C
:101FC0007514239FF4001376F40F930519002685EA
:101FD000A93F9377350085E39357250093F7F703DF
:101FE00099EB83D7C401014491C7639F0A002685FA
:101FF000EFF0DF8D2285F2406244D2444249B2497B
:10200000224A924A056182801387C7FF42074183B3
:102010009306C00F13654400E3EFE6FCC8489385C0
:10202000E7FFB304B500C20523003501C181EFF01D
:10203000BF842380A4002181A380A40065BF05453F
:102040000A0513651500828021450A0513651500F0
:102050005DB7B14763EAA70097A700009387471FC2
:102060000A053E950841828017A5000013058521C9
:10207000828089E5232205000145828093070010B4
:1020800063F6B700232205000945828013068615F2
:1020900050C1DDB79C4108510947232006006383E6
:1020A000E7026367F7000547638CE700014582801C
:1020B0001147638BE7002147E39AE7FE6FE01FF8C3
:1020C0006FF0CF8D6FF0AF806FE03FF141119567FA
:1020D00006C622C4938707B063EEA7002A84EF20C8
:1020E000606495473305F50233558502B2402244BA
:1020F00041018280EF200063B7470F0093870724D8
:102100003355F5029307E02E3305F502C5B74111AB
:1021100006C622C4B727004003C707008146118BBB
:1021200001CB03C7070085461377B70F2380E7006D
:10213000138401A7384089476300F7066361F704F9
:102140008D476303F70689C608544937EF2020649A
:10215000784885476311F702B727004083C7070017
:10216000918B89E708549D37EF20606283C7D18443
:102170008507A386F184B24022444101828023A8CE
:10218000F1AA7C4823AE01A83307F4008507230C8D
:10219000A70423A2F1AC45BF23AE01A87C481307D6
:1021A000F00FE342F7FACDB723AE01A885472380AD
:1021B000F1AA51BF411122C48D452A8413050002A2
:1021C00006C6EF20C01C371700408327870A8545C5
:1021D000414593E707022324F70AEF20401BEF2035
:1021E000C0660854EF2060630145EF202069054573
:1021F0009545EF20406AB2402244B7E700E011471E
:1022000023A2E710014541018280FD5715C963599A
:10221000B002C2054111C18106C6EF20606A37478E
:1022200000408347B7C093F7F70FE5FF834757C0D8
:1022300093F70704FDD7B24081473E854101828074
:102240003E858280011122CC26CA2A84854428003A
:1022500006CE02C402C6A3039100EFF04FBC1305E3
:102260007100EFF02FC68347710099E3A30391003B
:10227000A2460346710097A500009385253617A551
:1022800000001305E535EF20105B1306002681459D
:10229000138501A7EFE06FE683477100238AF1A859
:1022A000A24723ACF1A8970700009387E7DE23A895
:1022B000F1A619C44146A285138541ABEF40B04F4A
:1022C000138401A797D7000083C747CB17E7FF1FE9
:1022D0001307875B970600009386E6D901469705AA
:1022E0000000938565DB2285EFF00FDD93773500E5
:1022F00099C77D55F2406244D244056182800981CC
:102300009377F5037D55FDF7228523A881A85D35D8
:102310000145CDB7B337A000A380F1AA09CD411183
:1023200006C6EF20A004B240938701A788DFCCDF68
:1023300001454101828001458280011106CE2AC6F5
:10234000A3860184EFE01FFDEFE05FDD3245DD3D58
:10235000635E0500F24097A500009385252817A528
:1023600000001305E52505616F20F04CB7270040FC
:1023700003C72700C166136717002381E70037E70B
:1023800000E02320D71003C707001377B70F23807F
:10239000E700F24005618280411122C4138401A745
:1023A000384006C626C24AC09147631FF70AEF109D
:1023B000F07B1306803E8146EF20704F23A4A1CC12
:1023C00083C701AAC5EB83564405138681AC83C538
:1023D00041A92285793609819374F5039DE483D55B
:1023E000C1A8B5C9B714004003A7C40C370904003D
:1023F00048483367270123A6E40C013D83A7840CDA
:10240000B3E7270123A4F40CB9A026859931AA8645
:10241000268697A500009385651C17A50000130567
:10242000E515EF20504197A500009385251B17A5C2
:1024300000001305E516EF201040035644059146B1
:10244000938581AC17A5000013054519EFE09FABFC
:10245000AD47E396F4F8238001AA23AE01A823A296
:1024600001AC854723A8F1AAB24022449244024914
:102470004101828017A5000013054513EF20B03BF2
:10248000D9BF83C711AA85CB938701A7885FCC5F8B
:10249000411106C6EF10306E91E58567938777BBD3
:1024A00063F9A700814513056008A38001AAEFE046
:1024B0005FC7B2404101CDB537170040ADC183279A
:1024C000870CB7060800D58F2324F70C2147B717D0
:1024D000004083A6C70A93E6160023A6D70A9316E0
:1024E0008501E18663D5060483A6870A93E6260064
:1024F00023A4D70A83A6870A7D17060593E616004C
:1025000023A4D70A1377F70F1375F50F79F303A7F1
:10251000870CB7060800558F23A4E70C8280832719
:10252000C70CB7060800D58F2326F70C45B783A63E
:10253000C70A93E6260023A6D70A6DBF411181453D
:102540001305D00806C68D3F81455145B537B240C9
:1025500081451305F00A410185B783C7E184BDC7F2
:10256000011122CC4AC852C456C206CE26CA4EC653
:10257000138901CD1304000B930A0008130A800B82
:1025800081452285153F814501453D3781454145BE
:102590002537CA89814403C509008504854593F41C
:1025A000F40F193FA109E39854FF05041374F40FC5
:1025B0000509E31744FDF240624423870184D244B5
:1025C0004249B249224A924A05618280828001478B
:1025D000138601CD930500082145B306E600814727
:1025E00085072380060093F7F70FA106E39AB7FE4D
:1025F0000507E314A7FE85472387F184B9BF931726
:102600008501E18763CD07029307F00363E9B70211
:1026100013F775008547B397E7000E0513D735000C
:10262000938501CDAA95BA9593F7F70F03C70500D7
:1026300001CAD98F2380F50085472387F1848280E2
:1026400093C7F7FFF98FFDB71D71A2CCD2C462DC2E
:1026500066DA86CEA6CACAC8CEC6D6C2DAC05EDEE2
:102660006AD86ED6A1472A8CAE8C13DA16001944AC
:10267000638DF60013F476003334800093D7360070
:102680003E9433048A021374F40F930406FE93F409
:10269000F40F93074002B387F402B1491946E28B65
:1026A000014BA14A3EC6B3893403939744003EC808
:1026B000933717003ECAB384C4021376FB0F6361DD
:1026C0008602F6406644D6444649B649264A964AAA
:1026D000064BF25B625CD25C425DB25D256182803A
:1026E0006391560733069B0097A700009387072145
:1026F0003E96834D060013898C001379F90F668D81
:1027000013F61D003DCE3A86EA855E8536CE3ACC7C
:10271000FD356247F24693081D0013FDF80F93DD67
:102720001D00E31FA9FD93871B0093FBF70F638830
:10273000560133868B4163144601CA8CE28B050B2C
:10274000ADBF31466399C60033063B0197A7000031
:102750009387473D71BF4146639AC600C24733061F
:10276000FB0097B700009387278359B76146E39A28
:10277000C6F4B2473306FB0097B700009387C7E063
:1027800085BF5246EA855E853ACE36CC8D3D72478E
:10279000E24651B7797152CC130A000422D426D2F2
:1027A0004AD04ECE56CA5AC85EC662C466C206D663
:1027B0002A84AE84B2893689BA8B13DB1600930A59
:1027C000E005214C930CE007330ADA4003C6090008
:1027D000930706FE93F7F70F63FFFA00B2502254F7
:1027E00092540259F249624AD24A424BB24B224CAD
:1027F000924C456182805E87CA86A6852285A9356E
:10280000631F890119041374F40F63F88C00CA94D0
:10281000E3469AFC93F4F40F0144850945BF5A94AA
:10282000DDB7797122D4930700022A84328506D657
:1028300026D24AD03AC63689231EF100AE84EF4034
:1028400060482A86AE86680897A500009385850AA9
:10285000EF5040693247CA867008A68522851D3F21
:10286000B250225492540259456182801D71A6CA09
:1028700093F4760093D73600B3349000BE94CEC65E
:1028800093098004B384D402931796003EC693172D
:1028900076003EC893175600A2CCCAC8D2C4D6C28E
:1028A000B309360366DA6AD86ED686CEDAC05EDE43
:1028B00062DC2A8AAE8A3ECA2A84014997AC0000AB
:1028C000938CCCD617AD0000130D4DD4933D17005B
:1028D00013160901418263619602F6406644D644AC
:1028E0004649B649264A964A064BF25B625CD25C80
:1028F000425DB25D25618280C147639BF604D24789
:102900003306F9006A96034C060013838A00137B92
:10291000F30FD68B13761C0025CE3A86DE852285F2
:1029200036CE3ACCE9396247F24613881B00937BD6
:10293000F80F135C1C00E31F7BFD05041374F40FF8
:1029400033064441630FD604568B0509DA8A49B72A
:1029500061466396C6003306390166966DB7130665
:102960000002639BC600C2473306F90097A7000028
:10297000938747D03E9641BF13060004E39FC6F4F9
:10298000B2473306F90097A700009387A7D6DDB7B3
:102990006E86DE8522853ACE36CC95317247E24688
:1029A00069B752845DB741119145054506C622C4F9
:1029B000EF10F01D91450945EF10701D37140040D0
:1029C0008327840A91453705100093E727002324C5
:1029D000F40AEF1030268327840C37071000914546
:1029E000D98F2324F40C37050800EF10B024832777
:1029F000840C37070800B240D98F2324F40C2244FA
:102A00008D45114541016F10F022411106C622C4C7
:102A100026C237140040413F8327C40CB70410007E
:102A20001305800C93E747002326F40C0327C40CFE
:102A3000458F2326E40C97E0FF1FE780209C832727
:102A4000840C81451305E00AC58F2324F40CEFF0B4
:102A5000BFA681450145EFF03FA681454145EFF016
:102A6000BFA5814513050004EFF01FA5814513059F
:102A70001008EFF07FA481451305F00CEFF0DFA301
:102A800081451305000AEFF03FA381451305000CB3
:102A9000EFF09FA281451305600AEFF0FFA1814589
:102AA0001305800AEFF05FA181451305F003EFF0F5
:102AB000BFA081451305300DEFF01FA081450145F2
:102AC000EFF09F9F81451305500DEFF0FF9E81456C
:102AD00013050008EFF05F9E81451305900DEFF0A0
:102AE000BF9D81451305100FEFF01F9D8145130514
:102AF000A00DEFF07F9C81454945EFF0FF9B81459C
:102B00001305B00DEFF05F9B814513050004EFF056
:102B1000BF9A814513050002EFF01F9A81450945D0
:102B2000EFF09F9981451305D008EFF0FF9881459C
:102B30005145EFF07F9881451305400AEFF0DF978C
:102B400081451305600AEFF03F97EFF05FA822443C
:102B5000B240924481451305F00A41016FF0DF95C0
:102B600041110547C14613064005C145014506C64A
:102B7000EFF09FAD0547C1461306A003C145494587
:102B8000EFF09FAC0547C1460146C14513056004FF
:102B9000F1390547C146130680049305000201453B
:102BA000EFF09FAA0547C1461306A0039305000254
:102BB0004945EFF07FA90547C1461306500293052A
:102BC000000213056004EFF03FA80547C146130655
:102BD00020059305000213050005EFF0FFA6B240A3
:102BE0000547C146130680049305000213058005BE
:102BF00041016FF07FA5011106CE22CC13076008BA
:102C00002E86630DE508636BA70013070008630CAD
:102C1000E502F24062440145056182804167930606
:102C2000A7FF630AD5006D17E315E5FE93C5F5FF11
:102C3000C205C18131A09965938555AAE30BB6FC05
:102C4000EFE02FCEF9B799CD85476382F50297B5AE
:102C500000009385256917B5000013052569EF204D
:102C6000803D45BF97D0FF1FE78000715DB728000A
:102C7000416402C402C6EFE09F9A1305D4FDEFE061
:102C8000CFCD42052AC41305E4FDEFE00FCDA247E6
:102C90003E952AC42800EFE0BF9CA5BF8D679387AF
:102CA000677305456384F500ADF50145EFF08FE6E8
:102CB0008DB7011106CE22CC02C002C202C402C6E8
:102CC000EFE09F8897070000938727F32A840A85FF
:102CD0003EC2EFF08FE689450145EFE08FC4835592
:102CE00024003145EFE0EFC3835544003545EFE064
:102CF0004FC3835584000545EFE0AFC283556400A0
:102D00000945EFE00FC2EF10A05FA145EFE04FDEF5
:102D1000996541656915938555AAEFE08FC0F2402A
:102D2000624401450561828083C7018599EF4111A5
:102D300006C623A8018423AA0184A53FB240854783
:102D40002388F1840145410182800145828041113F
:102D500006C622C4EFF0EFF2EF1040611306803E8A
:102D60008146EF20C03493870185DC436383A7024B
:102D70001304803E3354850223AAA1843945935518
:102D80000401EFE00FBA93150401C1813D45EFE066
:102D90004FB9B2402244014541018280411106C62B
:102DA00022C423AE01842A84EF10D0179307803EFB
:102DB0003355F50233058502EF10B01EB2402244B0
:102DC0000145410182809387C1859C4305456395F8
:102DD000A704411122C4138481851C4017B500004B
:102DE0001305C55A06C6850723ACF184EF20E026FB
:102DF0000C4017B500001305255BEF20C0233737C3
:102E0000004083470780014593F7B70F2300F78001
:102E1000B24022444101828082804111054506C6AC
:102E2000EF1010091305200397D0FF1FE780005D06
:102E30000145EF10F00785450D65EF10A05FE165D6
:102E40009307400411679306004011669385056A55
:102E50000145EF108068373700408347278093E7AC
:102E600017002301F780B240B7E700E03707000200
:102E700023A0E71041018280797126D2AA8413052C
:102E8000401F06D622D44AD04ECEA30701003937C0
:102E900037050200EF10700519C1353775F9054582
:102EA000EF10A0771305400637040300C53D050465
:102EB0002285EF10900119E139377DF9814513051D
:102EC0008008EF10607D1305401F37040700F935B7
:102ED000130424082285EF10407F19E1ED357DF9B8
:102EE0003705001013050508EF10300009C513055C
:102EF000C002EF10E0783705001013050508EF1049
:102F0000C07E01C51945EF10A0771305401F370497
:102F100007006935130444082285EF10007B19E18E
:102F20005D357DF90545EF1060711305200397D0DD
:102F3000FF1FE780A04C0545EF10607213054006A7
:102F4000B13D37050200EF10407A19C1AD3D75F96A
:102F50000545EF10806C13054006370403003D3D26
:102F600005042285EF10607619E1B13D7DF98545B4
:102F70002685EF1060721305401F37040300393DAA
:102F800009042285EF10607419E1353D7DF91305C0
:102F9000401FB70400101935154993840404938920
:102FA00001198347F1006369F9022685EF10E07388
:102FB00015C10344F100EF10406D8347F100137415
:102FC000F40F4E94850793F7F70F2300A400A3078F
:102FD000F100C1BFCD3B71F50145EF1040680545DB
:102FE000EF10C065B250225492540259F249014583
:102FF0004561828081469307F00F13F7F60F6364F3
:10300000B7003E8582803307D50003470700B98F9C
:103010002147139887011396170013588841937717
:10302000F60F635608009347160393F7F70F7D17C3
:103030001377F70F79FF8506C9B7011122CC2A84CF
:103040001305800806CE26CA4AC8AE844EC62D3562
:10305000894513850119793F83C721196391A71009
:10306000894513853119793703C751198547631984
:10307000A70C83C7011903C51119A2073E95EF30AC
:10308000901697B700009387E72B9043D44397B9E6
:1030900000009389A92B17B900001309292CEF20F0
:1030A000B04E03A6090083A64900EF20A07297B78F
:1030B00000009387272A9043D443EF3060180326FB
:1030C000090083264900EF20304CEF30500B08C038
:1030D00083C7311903C54119A207AA9713054006F2
:1030E0003385A702EF30301003A6090083A64900FC
:1030F000EF20406E8326490003260900EF20D048C8
:10310000EF30F00788C0104097B500009385052088
:1031100017B5000013050525EF10F071904097B525
:1031200000009385A51E17B500001305E524EF10D8
:10313000907014409307204E63DCD7001CC0814779
:10314000F2406244D2444249B2493E8505618280E0
:10315000130700E78147E3D5E6FE18C0D5B78547DA
:10316000C5B779716C08280806D622D426D2F13565
:10317000624597B400009384641EEF30D0069040FF
:10318000D440EF202065EF30B03E2A847245EF3006
:1031900090059040D440EF20E063EF30703DAA846A
:1031A000EF3050322AC422852EC6EF30B031B247FC
:1031B00022472A86AE8617B5000013056516EF1064
:1031C000906717950000130525FAEF101069228605
:1031D0000547C146C14513052002EFF08FE426865E
:1031E0000547C1469305000213052002EFF06FE387
:1031F000EFF0AFB6835581010545EFD0FFEB835566
:10320000C1010945EFD05FEBB250225492544561A1
:1032100082809307C00F6300F50463ECA70097B7A3
:1032200000009387A76115C597B700009387875F54
:103230000DA01307E00F97B700009387E760630ABC
:10324000E5001307F00F97B700009387275EE31D93
:10325000E5FC3E85828097B700009387A75DD5BFC8
:10326000797122D451462A84979500009385C5D957
:10327000680006D6EF30305403460400930544003E
:103280006800EFD0DFB983471400B2502254338571
:10329000A7401335150045618280AE87138817005B
:1032A000411193158500C29506C60D486371A802A9
:1032B00097B500009385855117B50000130545515A
:1032C000EF107057FD57B2403E8541018280B6979E
:1032D00085071307F00F637BF70097B50000938510
:1032E000E54E17B5000013052550D9BF2D4597D0E1
:1032F000FF1FE780E01E814779D597B500009385D1
:10330000E54C17B50000130525505DBF8D4763E8F8
:10331000B708411122C4139435002A940347A4002E
:103320004AC006C626C29307F00F2A8901456304E6
:10333000F7042E86AE8417B500001305E54597B552
:1033400000009385A548EF10104F9306001001462A
:1033500093958400254597D0FF1FE780601815C11D
:1033600097B500009385854617B5000013054544C1
:10337000EF10704C7D55B240224492440249410105
:103380008280FD5723170400231604002305F40050
:1033900083572900014585072311F900E9BF7D55B1
:1033A0008280797106D622D426D24AD04ECE52CC13
:1033B000A307B1008D4763E7A7069387011513198B
:1033C0003500B38927012A8403C5A90013FAF50F34
:1033D000BE840147630345092D3D2AC45285153D2E
:1033E000A2462A87228697B500009385253E17B509
:1033F00000001305E545EF10104485461306F10063
:1034000093158400294597D0FF1FE780600D09CDF3
:1034100097B500009385853B17B500001305C53EA1
:10342000EF1070417D5715A883C7A9001307F00F4F
:10343000639EE70203D7211501C77D172399E11485
:103440000347F1009307E00F6314F700239A8114F8
:10345000B38724012385E7000147B25022549254D8
:103460000259F249624A3A85456182801307E00FAA
:10347000E398E7FC9147239AF114D9B78D4763ECA1
:10348000A7020E05138701152A978347A700930605
:10349000C00F01456382D70263E6F60013B517003B
:1034A0007D1582809306E00F6389D7001307F00F24
:1034B00001456383E7007D5582808357E70013054C
:1034C000F00F1D8D82800D47AA87AA866369A70227
:1034D000138601150D481397370032970347A7004D
:1034E0003E85630FB7000147638407011387170008
:1034F00093170701C183E390E6FE114582807D5555
:1035000082800111938715004AC8131985003E99DE
:1035100006CE22CC26CA4EC652C48D4763E7A70406
:10352000B69585059307F00F36847D5563E7B7049C
:10353000B289130A0010A28463748A0093040010F5
:10354000C204C180A6864E86CA85294597D0FF1F32
:10355000E78000F909CD97B500009385252717B5B9
:1035600000001305652AEF10102D7D5539A0058C3C
:1035700042044180269961F00145F2406244D24400
:103580004249B249224A056182808D4763E4A7140B
:1035900003D625000111C1671307F6FF420726CAAB
:1035A0004EC606CE22CC4AC852C456C24183F51735
:1035B000AE89AA8463F6E70297B5000093850521DA
:1035C00017B500001305452BEF10F0267D55F2408E
:1035D0006244D2444249B249224A924A05618280F9
:1035E00093870115931A3500338457010347A400CC
:1035F0009306C00F3E8A7D55E30BD7FC63ECE600D3
:1036000079D797B500009385651C17B500001305A1
:1036100065285DBF9307E00FE365F7FE83C60500ED
:1036200003C715000358E40097B500009385051AF9
:10363000A68717B500001305E527EF10D01F03C9B3
:1036400009008355E4004E861109CA862685553D3A
:10365000635B050097B500009385451717B500001B
:103660001305852995B78357E40003570401930692
:10367000F00FCA97C2073A990347A400C1832317E2
:10368000F40023182401BA856314D7009305E00FD2
:103690009306F00FB387F6408D4663E4F60093057A
:1036A000C00F6300B7022685EFF0BFCF635B050054
:1036B00097B500009385851117B500001305852582
:1036C00021B7B3075A0103D7C70001450507239661
:1036D000E700F5BD7D558280797106D622D426D2C9
:1036E0004AD04ECE02C605E217B600001306C6CD7C
:1036F00097B500009385850D17B50000130545CEDD
:10370000EF1070133DA02A89035506008D473284BF
:1037100063F3A7022A8697B600009386E6CA97B598
:1037200000009385A50A17B500001305E5CCEF103E
:1037300090107D5535A093143500CA9483D7C400EA
:103740009DE717B60000130626C897B500009385BD
:10375000E50717B50000130525CCEF10D00D014586
:10376000B250225492540259F24945618280AE8986
:103770008355240091467000EFF03FB2635F05006F
:1037800017B60000130646C497B5000093850504DC
:1037900017B50000130545CAA5B70356E10063033A
:1037A00036033287CE8617B600001306E6C197B5FA
:1037B00000009385A50117B500001305E5C9EF10BA
:1037C000900785BF835604000357240097B5000077
:1037D0009385C5FF17B50000130585CBEF10B00525
:1037E00083552400035504009146700023170100FF
:1037F000EFF03FD1635F050017B600001306C6BCAB
:1038000097B50000938585FC17B500001305C5CB5F
:10381000C5BD83D7C4008DEB03C7A4009307C00FB9
:10382000E31FF7F2835504004A85EFF03FAEE358FB
:1038300005F297B50000938565F917B500001305EB
:10384000A5CAEF10407FF5B5FD17C207C1832396C7
:10385000F400E39607F0C9B71307F5FF4D7142076F
:10386000C167232C411323261114232481142322FE
:10387000911423202115232E3113232A5113232899
:1038800061132326711323248113232291132320F0
:10389000A113232EB1114183F51703DA411563E714
:1038A000E7088D472A8BAE8B328D63F34701014ABF
:1038B000239D611791472390F118C167138C01155F
:1038C000F51752898144E28A3EC68D479319090152
:1038D00093D9090163EE3705C167FD173379F90004
:1038E000931D3900B307BC0183C7A7001307C00F9E
:1038F00093F7D70F6399E70891C0814B1306C00F68
:1039000081454808EFC07FFF83D7AA023247FD17E1
:10391000C207C183637FF71697B50000938505EB57
:1039200017B50000130545F5EF10E070FD54BDA07C
:103930007D5969BF91465008A2854E85EFF0FF95ED
:10394000635B050097B50000938545E817B5000057
:103950001305C5BAD1BF83576101B5EF8347410154
:1039600091073E9442044180A24783D7E700E36376
:10397000F4FCE69485476398F41263060D0083A770
:103980000A032320FD00FD19C20993D909018D47BF
:103990007D1963F337010D49E3192AF38320C1141C
:1039A00003248114268503290114832441148329C7
:1039B000C113032A8113832A4113032B0113832B81
:1039C000C112032C8112832C4112032D0112832D6D
:1039D000C1117161828003D6A117E311F6F8CA867E
:1039E000EE85228717B50000130585B3EF10A0649C
:1039F0009305440083464101C2053008C1814E85CC
:103A0000EFF0BF89635B050097B50000938505DC87
:103A100017B500001305C5B301BF4808EFF05F8478
:103A20000DE1EE8517B500001305C5B4EF10A060D9
:103A300091465008A2854E85231B0100EFF07FAC14
:103A400031BF63880B001306C00F4C085E85EF3052
:103A5000805683D701180D476364F7021386011857
:103A600083D5A1175685EFF03FC7635B050097B577
:103A700000009385A5D517B50000130565B16DB598
:103A80002390311923918118D247850C23AEF1166A
:103A9000F1B5B387BA01814C01443EC497BD000023
:103AA000938DCDD2D1B5E3D097EE13860118DA8588
:103AB0006285EFF07FC2E35805EC97B5000093856F
:103AC000E5D017B500001305E5AEB9BD6971B707BC
:103AD0000400232E31119107C16923248112232070
:103AE0002113232861112326711123261112232269
:103AF0009112232C4111232A51112324811123AA2D
:103B0000F1141384A115EF0070060149F51917BBD4
:103B10000000130B6BB797BB0000938BABA5131A78
:103B200089009314090185462286D2852D45C180DE
:103B300023100400231104002312040023130400A3
:103B400097D0FF1FE780C09929C597B500009385DE
:103B5000E5C717B500001305A5A7EF10C04D8320DA
:103B6000C1120324811285472388F1148324411252
:103B7000032901128329C111032A8111832A4111CA
:103B8000032B0111832BC110032C811001455561BA
:103B9000828003450400EFF0CFE7AA864A8697B5F6
:103BA00000009385A5C217B500001305A5A4EF106A
:103BB0008048034604009307C00F630DF60C63E8CA
:103BC000C7024DC697B50000938545C017B50000E4
:103BD000130505B4EF102046A68513850115EFF0F7
:103BE000EFF2634B0524FD572300F40041A0930737
:103BF000E00F6301F60A9307F00FE315F6FC1306D6
:103C000000109305F00F0A85EFC03FCF9306001018
:103C10000A86D2852D4597D0FF1FE780608C05C5A9
:103C200097B50000938585BA17B500001305C59DAB
:103C3000EF10604097B50000938545B917B50000B7
:103C40001305C59D19BF81479306F00F1307001098
:103C50003306F10003460600631FD61A8507E39971
:103C6000E7FE83D7211585072399F11405099147AC
:103C70002104E316F9EA83D6411503D6211597B539
:103C800000009385A5B417B50000130565ABEF10D0
:103C9000803AF1B51306C00F81450A85EFC0FFC514
:103CA0004A8697B50000938565B217B500001305E5
:103CB000E5992312040023110400130AE00FEF100A
:103CC0008037130CF00F97BA0000938A2AB08355FF
:103CD00044006371BA049305C00F2685EFF06FECC2
:103CE000034704009307C00F6315F71083572400A0
:103CF00063910710A68513850115EFF02FE1635A34
:103D0000050E97B50000938565AC17A50000130557
:103D1000A57D05A091460A862685EFF00FD863554C
:103D2000050297B50000938565AA17B50000130535
:103D30006593EF10403097B50000938525A917B51E
:103D400000001305259B11BD03460100630E860983
:103D5000835621009387F6FFC207C18363EFF904FE
:103D600003471100D6855A85EF10E02C8355440097
:103D70008346010050009105C205C1812685EFF000
:103D8000CFD1635B050097B50000938525A417A5E7
:103D900000001305E57B71BF0A85EFF06FCC1DE5D0
:103DA000D6855E85EF1020298355440091460A860A
:103DB000268523110100EFF0CFF48347010003575C
:103DC00044009107BA972312F40011B7834701000A
:103DD000035764009107BA972313F4008357240014
:103DE00085072311F400D1BF83574400E37AFAEE2C
:103DF000DDB503576400835644004A8697B500003A
:103E00009385C59C17B500001305C58AEF10A02245
:103E1000239A9114A1BD97B500009385259B17B5F2
:103E200000001305E594EF100021A6851385011508
:103E3000EFF0CFCDE35705E297B5000093850599E4
:103E400017A500001305457F09BB130101DC232CD6
:103E5000812223282123232631232E84AA898145E8
:103E6000328928081306C00F232E1122232A9122FB
:103E7000232441232322512323206123232E712134
:103E8000232C8121232A9121EFC03FA751469785FA
:103E9000000093856517480002C0EF30C01121C4AF
:103EA0009307F9FF1307700F7D556360F738138789
:103EB000F9FF4207C1674183F51763E8E736914789
:103EC0000A862C084E852310F100EFF0FF98635E00
:103ED000050097B500009385658F17B500001305A1
:103EE000A5A5EF1040157D5589A64A86A2856808CC
:103EF000230C2101231D3101EF30E00B4A866C08B1
:103F00004800EFC0DFF1A30CA10011099307800F57
:103F10007D5463E2270F83D441150D4A2684637CC8
:103F20009A009305E00F0145EFF0EFD91314050156
:103F30004180636D8A262285EFF04FD4637D250B87
:103F400003D72115894763E6E7088D4763F3970098
:103F50008144138601154165A68711449308C00F5B
:103F6000328A8D457D1593963700B29603C8A60018
:103F7000139707014183631E180163EB8500131833
:103F80003400329803D3C6008356C8006373D3004D
:103F90003A8463E1E5086301B708E98F8507E39494
:103FA000F4FC8D4763FC870617A600001306064144
:103FB00097B500009385858117B500001305859995
:103FC000EF10600703D441152285EFF02FCB637407
:103FD00025039305C00F2285EFF0AFBC6359051C84
:103FE00097A500009385857E17B500001305459DB4
:103FF000EF1060047D5493140401C1808D4763F574
:10400000971E97A500009385657C17B500001305E2
:10401000A59EC1BDFD5781BF814751B71306C00F93
:104020008145480AEFC07F8D228697A500009385C1
:10403000E57917B500001305A593EF00D07F93171E
:10404000340081443E9A8D4A17AB0000130B0B7865
:1040500097AB0000938B0B528357EA0063E2F402A4
:10406000A28513850115EFF06FAAE35D05F497A50E
:1040700000009385A57517A500001305E5460DA062
:104080009146500AA6852285EFF02FA163560502BE
:1040900097A500009385857317A5000013050546B5
:1040A000EF007079228697A500009385257217B5D9
:1040B00000001305E58E29B783475111834641114E
:1040C00081C78357611191E79106B694C204C180FC
:1040D00061B793854400C205300AC1812285EFF0A3
:1040E000CF9B635B050097A500009385256E17A500
:1040F00000001305E5456DB7480AEFF06F9615E926
:10410000DA855E85EF003073A6859146500A2285D8
:10411000231B0110EFF0EFBE834741119107BE94BE
:104120008357CA00C204C18085DBFD172316FA003D
:1041300025B703DC41156285EFF04FB48347411189
:1041400091076370F5049305F00F6285EFF0AFB748
:10415000931C050193DC0C0163FB9A0197A50000F9
:104160009385C56617B500001305058215BF930535
:10417000C00F6285EFF0EFA29305E00F6685EFF0C8
:104180004FA24C0A03D54115EFF02FC0635B050029
:1041900097A500009385856317A500001305C575D5
:1041A00001B7834741119107BE940DB701442285A1
:1041B0009305F00FEFF02FB12A84420541818D471E
:1041C00063FBA70097A500009385456017B5000025
:1041D0001305058131BD9305E00FEFF08F9CE3419E
:1041E00005E04204418001BD2C082685EFF0EFB9BF
:1041F000635B050097A500009385455D17B500003A
:1042000013054581F9B9938701150E043E940347C0
:10421000A4009307E00F6314F700239A9114035747
:1042200001008D4763FCE70201458320C12303247D
:10423000812383244123032901238329C122032AC3
:104240008122832A4122032B0122832BC121032CAB
:104250008121832C41211301012482800A86CE858D
:1042600013850115EFF04FC7E35005FC97A500003B
:104270009385C55517A500001305C57B9DB16D71CC
:104280002324811023229110232021112A842E8996
:10429000B28481451306C00F480023261110EFC0D9
:1042A000CFE583C7011589EF7D5422858320C11096
:1042B000032481108324411003290110516182805D
:1042C000E30409FEE35290FE1307F4FF4207C167BF
:1042D0004183F517E3EAE7FC228501464C00EFF045
:1042E000AFD72A84E34205FC69D10344410063D37C
:1042F0008400268422862C004A85EF20D04B75B797
:1043000083C7018685E7411181461386411881459F
:104310001D4506C697C0FF1FE780801CB240854739
:104320002380F1861385411841018280138541184D
:104330008280411106C6FD269307803E3355F50263
:10434000B2409306F5FF33B5A6003687B7F600E016
:1043500098CA9307F5FFDCCA0567B7E700E023A01A
:10436000E7109307F0029CC2410182809387818607
:104370008843CC438280138781861C43584333850E
:10438000A740B3B7A700B305B7409D8D8280914782
:1043900063EEB70217A700001307C76B8A05BA952B
:1043A0009C41BA978287B717004003A7470B134574
:1043B000F5FF698F23AAE70A03A7070B698F23A8D4
:1043C000E70A03A7070A798D23A0A70A8280B717F7
:1043D000004083A6470B1347F5FFF98E23AAD70A9F
:1043E00083A6070B558D23A8A70A83A6070A758FF6
:1043F00023A0E70A8280B717004003A7470B498F25
:1044000023AAE70A03A7070B1345F5FF45BFB71714
:10441000004083A6470B1347F5FF758F23AAE70AD1
:1044200003A7070A598D4DB7B717004003A7470BDD
:10443000498FEDB7914763EEB70217A70000130746
:10444000A7628A05BA959C41BA978287B717004040
:1044500003A7470D1345F5FF698F23AAE70C03A7B0
:10446000070D698F23A8E70C03A7070C798D23A0FC
:10447000A70C8280B717004083A6470D1347F5FFAE
:10448000F98E23AAD70C83A6070D558D23A8A70C58
:1044900083A6070C758F23A0E70C8280B717004016
:1044A00003A7470D498F23AAE70C03A7070D134560
:1044B000F5FF45BFB717004083A6470D1347F5FF2B
:1044C000758F23AAE70C03A7070C598D4DB7B717B3
:1044D000004003A7470D498FEDB7011122CC26CA32
:1044E0002E8432C636C43AC23EC006CEAA841D2CE3
:1044F00037480F001308082433580503B758004005
:1045000083D5488082471247C205C18193F505FCD7
:10451000C205C1812392B88083D54880A246324625
:10452000B365B800C205C1812392B88083D50880E5
:10453000C205C181F999C205C1812390B880E165A6
:104540009385056A63EB8508060433548502056686
:104550009305C6FF114542044180E18D81C51305D5
:10456000F6FF618D05081306F00363740601130856
:10457000F003420837560040135808012310068301
:1045800037560040231EA68083550680F2406244C1
:1045900093E515002310B68083550680C205C181BE
:1045A00093F555BFC205C1812310B680835506809F
:1045B000CD8EC58EC206C1822310D68083568680DA
:1045C0002314068083568680D244D58FD98FC207A4
:1045D000C1832314F6800561828015E68D45B305FD
:1045E000B4023355B5025205518111E105452166EA
:1045F000518D1306C0123308C8021306803E33588B
:10460000C8020508BDB7E5453304B4021166335549
:10461000850252055181518DD9BF375700408357CC
:10462000078011C593E707102310F7808280C20727
:10463000C18393F7F7EFC207C183FDB73757004037
:104640008357078011C593E707202310F7808280E6
:10465000C207C18393F7F7DFC207C183FDB737579E
:1046600000408357078011C593E707402310F78068
:104670008280C207C18393F7F7BFC207C183FDB72A
:10468000B75700402398A7808280B757004003D5D2
:1046900007811375F50F82809377E50F99C19367B2
:1046A0001500C207C183375700402318F780828066
:1046B000375700408357078011C5A166D58F231057
:1046C000F7808280C607C583DDBF37570040835619
:1046D000478183578781C207D58FE98FA207A183BE
:1046E0003385A740133515008280411102C4B757A6
:1046F000004002C6938707803EC69357C5013EC45B
:10470000A2472205218199CBB247D1073EC6B247C5
:104710009C4341017D8D3335A0008280B2474181A9
:10472000E107EDB7B717004003D587004205418187
:104730009377050491EB9377F5013755E80113055D
:1047400005803345F50282809377050C130700043A
:104750006397E7009377F50137459C1CCDB721653A
:10476000130505D08280814737370040A14663C4D6
:10477000C700328582800345B740E38EA6FE3385AD
:10478000F5000345050085072304A740CDB7B727EB
:104790000040C8C709472380E70011472380E7008E
:1047A0008280B737004023A6A78009472380E7808F
:1047B00011472380E7808280411122C406C62A84E3
:1047C00095372947B307E502B2408D83B3D78702F7
:1047D00022449507B3D7E70237370040C207C183A9
:1047E0002316F740410182807165411113050520B0
:1047F00006C6D937B7370040130770F82381E74062
:104800000D47A381E74013070004A380E740054755
:104810002387E740B24041018280411122C406C68D
:104820002A8409372947B307E502B2408D83B3D7FD
:10483000870222449507B3D7E70237470040C207F3
:10484000C1832316F7C041018280716541111305B0
:10485000052006C6D937B7470040130770F82381F3
:10486000E7C00D47A381E7C013070004A380E7C09A
:1048700005472387E7C0B2404101828037470040A7
:10488000834727C01A0593F7F703C98F93F7F70FEC
:104890002301F7C08280B747004003C717C019C97A
:1048A000D98DA380B7C003C707C0136787002380D3
:1048B000E7C0828093C5F5FFF98DA380B7C08280E1
:1048C000B74700402147B746004091E1828003C6C8
:1048D000B7C0E30CC7FE05050346F5FFFD15C2058D
:1048E0002384C6C0C181D5B7011106CE2EC615CD11
:1048F0001841AA8705C358417D5511CB8546631BD6
:10490000D70098472300070023A207000545F2407F
:10491000056182809847B2462300D7009847050773
:1049200098C7D8437D17D8C3D5B705466C00EFF0BC
:104930009FE3E9BF797122D426D24ECE52CC56CA1B
:1049400006D64AD05AC82A8AAE8A3284814493094C
:10495000000263440602B3879A00838707009DE341
:1049600063D6840263D2E402198C93F7260093097C
:10497000000281C719E393090003858A01499DE676
:10498000228929A88504C1BF058CC5B70144F1BFA0
:10499000CE8552853AC6893F32477D19E34A20FFCA
:1049A00022896353040001493304244163CBE402A8
:1049B000CA84B3872441D697838507009DED228959
:1049C0006341200563530400014433059400B25051
:1049D000225492540259F249624AD24A424B4561EA
:1049E0008280B3049740268B9305000352857D1B7C
:1049F000E53DE31B0BFE269965BF5285F535850421
:104A00004DBFCE855285CD357D195DBF5D71A6C286
:104A100052DC86C6A2C4CAC04EDE56DABA843E8ACA
:104A20009DE1930700030147D28626862C08231CAC
:104A3000F1000937B640264496440649F259625AB5
:104A4000D25A616182802A893684C68A91CAA9476E
:104A500001446317F60063D50500B305B040054473
:104A6000A30701029307F102A546130568FC33F77B
:104A7000C50263D3E6002A9713070703A38FE7FE57
:104A80009389F7FF33D7C50263FBC50409CCB9C8C6
:104A900013772A0021CB9305D0024A8542C6EFF056
:104AA000BFE43248FD1493774A008DC39307100684
:104AB000930500034A85631FF802EFF0FFE29305B8
:104AC00080074A85EFF05FE20904F9145687D28621
:104AD0002686CE854A85EFF0FFE52295A1BFBA85EF
:104AE000CE8771B71307D002A38FE9FE01449389E3
:104AF000E7FF55BFEFF05FDF93058005D9B71D7164
:104B0000CEC6DAC0BE8986CEA2CCA6CACAC8D2C4D6
:104B1000D6C25EDE62DC66DA6AD86ED6B3E7C5005E
:104B2000428B95EB930700030147C2864E862C000B
:104B30002314F100EFF01FE0F6406644D6444649E6
:104B4000B649264A964A064BF25B625CD25C425DED
:104B5000B25D25618280AA8A368A3A89AE8432841F
:104B600019CFA9470149639CF600635A0600B304B4
:104B7000B040B33790003304C0401D8C0549A30FEB
:104B80000100130DF101935DFA41A54C138C68FCF3
:104B90005286EE862685A285EF00F00A63D3AC002C
:104BA000629513050503A30FADFE5286EE8626859A
:104BB000A285930BFDFFE5296366B401639A8D021C
:104BC00063F84403630D09006388090293772B009F
:104BD00085C79305D0025685EFF01FD1FD19014717
:104BE000DA864E86DE855685EFF0DFD44A95A9B782
:104BF000AA842E845E8D69BF9307D002A38FFBFE2B
:104C00000149930BEDFFE1BF397126DA5AD0AA842E
:104C10002E8B2E85B28506DE22DC4AD84ED652D4A3
:104C200056D25ECE62CC66CA6AC8B28B36893AC6A4
:104C3000BE8942C4468AEF10106232472248AE8CC9
:104C4000BA87AA850547D288CA8666862A8C2685B1
:104C5000EFF0FFEA2A8D9305E0022685EFF0DFC82A
:104C6000050D8147854A0144294763CD3707628591
:104C7000E685EF10106A2A86AE865A85DE85EF102B
:104C8000205C2A8BAE8B5685A285EF1090682A8611
:104C9000AE865A85DE85EF10200FEF10D05B13D65D
:104CA000F541318DB347B600B305C5403335B50086
:104CB0003386C740D288CE87CA86098E09482685A2
:104CC0000547EFF0DFE3F25062546A95D25442593F
:104CD000B259225A925A025BF24B624CD24C424D6C
:104CE00021618280B3068702850733345703B30AF4
:104CF000570336949DBF39715AD037FB000022DC30
:104D000026DA4AD84ED652D456D25ECE62CC06DED1
:104D100066CAAA892E893284014A8144930B5002C3
:104D2000930AB002294C130B8BA7830509008DE56C
:104D30006386090081454E85EFF01FBBF250625437
:104D400026854259D254B259225A925A025BF24BEA
:104D5000624CD24C21618280638875014E85EFF0F0
:104D6000BFB885040509D1B783071900930C190052
:104D7000639A7701930550024E85EFF0FFB68504E4
:104D80006689CDB7D5D76387570563C8FA0013077F
:104D900030026384E704814705A01307D002638AC9
:104DA000E70013070003E398E7FE930C2900894707
:104DB00021A0930C2900854703870C006303570546
:104DC00063C1EA0293063002630BD702668901468B
:104DD000A54535A8930C29007DBF930C2900914768
:104DE000E1BF9306D0026309D70093060003E31FD7
:104DF000D7FC93E7270031A0850C8547C1BF93E717
:104E00004700850CE1B7330686030509369603078C
:104E10000900930607FD13F5F60FE3F6A5FE9305CB
:104E2000E0029946631EB70005098146A5450307C0
:104E30000900130707FD1375F70F63F5A502368AFE
:104E4000030709009305A0066308B70A63C1E502DA
:104E50009305C0046302B70A930580066307B70889
:104E600081451DA8B38686030509BA96C9B793057F
:104E700040076303B7089305A007630FB706130540
:104E8000C0068145631AA700030519008D45631408
:104E9000E50005099145050903070900130500060A
:104EA000130810066344E500130810041305700688
:104EB0006341E50613055006635DA71413057004EE
:104EC000634EE502930550046355B714930630040E
:104ED000E31AD7E81840930C4400A3060100230608
:104EE000E100BE8601476C0051A003051900814511
:104EF000E314E5FA09094DB705099DB79306300695
:104F0000E30AD7FC63CAE606930680056303D7026B
:104F100091BD930630076303D70463CAE602930684
:104F2000F0066303D70C9306000793E74700E31BE3
:104F3000D7E211476393E50A1D04937584FFC28885
:104F4000138485003E880147B287C14699A0930625
:104F500050076301D706930680074DBF1840930C96
:104F60004400DA8511C3BA855287BE864E85EFF0BC
:104F70007F9CAA946684FDB311476393E5021D04E8
:104F8000937584FFC288138485003E880547B287E5
:104F9000A946D0418C414E85EFF07FB6AA94D9B393
:104FA0000C40D28811043287854629464E85EFF0A1
:104FB000FFA5EDB71147639CE5001D04937584FFC1
:104FC000C288138485003E880147B287D1B70C4060
:104FD000D288110432878146C9BF0C403287110440
:104FE000D28881464146D9B71147639DE5001D042B
:104FF000937584FFC288138485003E880147B28779
:10500000A14641BF0C4032871104D2888146214617
:1050100071BF1D04937584FF3307D6401384850048
:10502000D0418C41C2887D173E884E85B687A946FF
:10503000EFF09FBDA5B739712ED232D4AA8550109A
:10504000014506CE36D63AD83EDA42DC46DE32C6D6
:10505000EFF07FCAF24021618280011122CC26CA82
:1050600006CE83470500AA840144A307F100830705
:10507000F100050485E3A9479305F10005460145C4
:10508000A307F100EFF02FEE2285F2406244D244F4
:105090000561828005469305F1000145EFF0AFEC14
:1050A000B387840083C70700A307F100C9B7B68799
:1050B000B2882A832E88639D061463F9C50A416766
:1050C000636EE61AB70700016363F63493568601F0
:1050D000E14717A700001307E7A236970347070029
:1050E000BA97130700021D8F19CB3398E500B35709
:1050F000F500B318E60033E807013313E50013D6D3
:1051000008013355C80293960801C18293570301E1
:105110003377C802B385A60242073368F700637A83
:10512000B80046989307F5FF636418016367B830C9
:105130003E853308B8403357C80242031353030176
:105140003378C802B386E602420833686800637B9E
:10515000D80046989307F7FF6365180179176363D2
:10516000D8003E874205598D8145828001E605477A
:10517000B358C702416763EAE80EB707000163EC62
:10518000F82893D68801E14717A7000013078797EF
:10519000369783460700BE9693070002958FE5EB8E
:1051A000939E08013387154113DF080193DE0E013A
:1051B0008545935703013355E7033377E703B30678
:1051C000D5034207D98F63FAD700C6971307F5FFB7
:1051D00063E4170163E6D7263A85958F33D7E70353
:1051E000420313530301B3F7E703B30ED703C20718
:1051F000B3E7670063FBD701C6979306F7FF63E544
:105200001701791763E3D70136874205598D8280EC
:1052100063E2D504C16763E2F604B707000163E403
:10522000F61E13D78601614897A700009387878DE4
:10523000BA9703C70700130E00024297330EEE40E1
:10524000631A0E0C63EDB61C3335C500134515000B
:10525000814582808145014582809307F00F63F389
:10526000D71C13D786002148C1B71307F00FC68695
:10527000E37C17F193D68800A14739B71307F00FE5
:10528000B286E378C7E493568600A14799B5B398F0
:10529000F80033D6D50013DF0801335EE6033397F9
:1052A000F500B356D500558F939E080193DE0E018D
:1052B0003313F50093550701B376E603B387CE03A6
:1052C000C206CD8E63FBF600C6961306FEFF63E4AE
:1052D000161763F2F616791EC6969D8E33D6E60330
:1052E00093170701C183B3F6E6033385CE02139704
:1052F00006015D8F637BA70046979307F6FF6368FF
:1053000017136376A7127916469793150E01098F26
:10531000D18D45B5B357E600B396C601DD8E33D3C4
:10532000E50013DF0601B357E303939E060193DE06
:105330000E013398C5013357E500336807019358D0
:1053400008013316C6013373E303B385FE0242033B
:10535000B368130163FBB800B6981387F7FF63EADD
:10536000D80C63F8B80CF917B698B388B84033D79F
:10537000E803420813580801B3F8E8033383EE0248
:10538000C208B3E5080163FB6500B6951308F7FF93
:1053900063EDD50863FB65087917B695C207416FC1
:1053A000D98F1307FFFFB3F6E70093D80701718F7A
:1053B0004182B38EE602B3856540B386C60213D838
:1053C0000E013387E802BA96C2963386C80263F3A9
:1053D000E6007A9693D80601469663E2C502638595
:1053E000C5003E858145828041677D17F98EC206E2
:1053F000B3FEEE003315C501F696E374D5FE1385B2
:10540000F7FF8145828013D70601414831BD93568D
:105410000601C1477DB993D60801C147B5B381459F
:10542000054582803687014801B5428785BF3E86A3
:10543000E9BDBA871DBF328E4DB579154698D5B9ED
:105440007915C69759BBB68732882A832E872E8E48
:105450006393061463F1C50A41676378E61A13077C
:10546000F00FB2866375C70093568600A147179761
:1054700000001307276936970347070093080002C7
:10548000BA97B388F840638C0800B3951501B357F9
:10549000F5003318160133EEB70033131501135618
:1054A0000801B357CE021315080141819356030139
:1054B000337ECE02B307F502420E3367DE00637817
:1054C000F7004297636507016373F70042971D8FEA
:1054D000B356C70293170301C1833377C70233055D
:1054E000D5024207D98F63ECA7083385A74033550F
:1054F00015018145828001E605473358C70241679F
:10550000636CE80EB70700016365F82A93568801BB
:10551000E147179700001307E75E36970347070038
:1055200093080002BA97B388F840639A081E131EC6
:105530000801B385054113560801135E0E01135788
:105540000301B3D6C502B3F5C502B386C603C205CF
:105550004D8F6377D700429763640701636AD7264C
:10556000158F3355C7024203135303013377C70224
:105570003305C5034207B367670063F8A700C29706
:1055800063E5070163F3A700C2973385A74033554E
:105590001501814582802A88E3EED5F4C16763E571
:1055A000F604B707000163E2F62013D38601E14851
:1055B00097970000938707559A9703CE0700130328
:1055C0000002469E3303C3416319030463E4B6003B
:1055D0006369C5003308C540958D333705013387AE
:1055E000E5404285BA8582809307F00F63FBD71CA4
:1055F00013D38600A1486DBF1307F00FC286E37A6C
:1056000007F193568800A14729B7B70700016366E1
:10561000F61A93568601E14799BDB357C601B39672
:105620006600DD8EB3D8C50113D70601B3DEE802EC
:10563000139F0601B357C501135F0F01B3956500B2
:10564000DD8D13D805013316660033156500B3F8F8
:10565000E802B307DF03C20833E80801637BF80000
:1056600036989388FEFF6363D8166371F816F91EA7
:1056700036983308F840B357E802C205C181337841
:10568000E802330FFF02131708014D8F637BE70118
:1056900036979385F7FF6369D7126377E713F91796
:1056A0003697C20EC162B3EEFE001388F2FFB3F864
:1056B0000E019355060193DE0E0133780601B38F78
:1056C00008033307E74133880E0393D70F01B388EC
:1056D000B802C298C697B38EBE0263F30701969EC6
:1056E00041687D1893D50701B3F70701C207B3FFDF
:1056F0000F01F695FE976362B70A630EB708B3070A
:10570000F5403335F500B305B740898D339EC501AB
:1057100033D567003365AE00B3D56500828033189A
:10572000180133D7F50013560801B356C702131EEC
:105730000801B357F500135E0E01B3951501DD8D19
:1057400093DE0501331315013377C702B307DE0279
:1057500093160701B3E6D60163F8F600C29663E537
:10576000060163F3F600C2969D8E33D7C602939767
:105770000501C183B3F6C6023307EE029395060115
:10578000DD8D63F8E500C29563E5050163F3E5008F
:10579000C295998D6DB3E374F5F63386C740B3B700
:1057A000C700B6979D8DB28799BF13D30601C14834
:1057B00001B593560801C147A9BB93560601C147DD
:1057C0007DB136838148EDB3AE87E1BDC68E55B558
:1057D000429779B3397193D7450122DC4AD856D222
:1057E0002A891394C50006DE26DA4ED652D45AD042
:1057F0005ECE13F5F77F318093DAF501630B051068
:105800009307F07F630BF514135AD9010E04336428
:105810008A00370A8000336A4401131B390093045D
:1058200015C00144814B13D846011399C600137863
:10583000F87FB2881359C90093D9F601630E08089E
:105840009307F07F6300F8041357D6010E093369FC
:105850002701130818C0B70780003367F9009318B1
:105860003600B38404418145BD4733C83A0163E43F
:10587000871A979700009387E7200A043E94104008
:105880003E9602863367C900938414806312071022
:105890001364240081488945C1BF1306F07F814706
:1058A0000147B207F25062545206B1837E08D18F8D
:1058B000B3E70701D2544259B259225A925A025BB5
:1058C000F24B3A85BE852161828001481306F07F44
:1058D000B70708000147F1B73367C9004DC7630830
:1058E00009304A8532C4EF10405F2246130755FF46
:1058F000F547930685FF998F3319D900B357F60002
:1059000033E72701B318D60026959304353F814528
:10591000A1BF336A240163030A0636C632C4630694
:10592000042A2285EF10605B2246B246AA84130740
:1059300055FF754A138B84FF330AEA403314640120
:10594000335A4901336A8A00331B69011305D0C0F9
:10595000B30495400144814BF9B5336A24016318BF
:105960000A002144014B9304F07F894B6DBD228ACC
:105970004A8B31449304F07F8D4B75B51144014B34
:105980008144854B4DB51364140081488545E9BDBC
:10599000136434004A878D45C1BD630A052E8547CF
:1059A000898F9306800363DDF63201468147014704
:1059B000CDBDCE868947638DF53A8D47E387F5F0F7
:1059C00085473688E383F5FE1385F43FE357A0FC53
:1059D00093F778006396072893D6380093177700DB
:1059E00063D80700B70700FFFD177D8F13850440BC
:1059F0009307E07FE3C3A7EA1316D7019317970035
:105A0000B1833367D6001376F57F61BDD6865287A2
:105A1000DA88DE8545B763614723630DEA20DA86BD
:105A2000FD145284014B9317870013D3880133630D
:105A3000F300935E0301B357D403131F0301135FF5
:105A40000F0193D50601139E88003374D4033307E6
:105A5000FF024204C18D63FBE5009A951386F7FFB0
:105A600063EE652663FCE526F9179A95998D33D781
:105A7000D503C206C182B3F5D5033306EF02C205D2
:105A8000D58D63FBC5009A959306F7FF63E6652401
:105A900063F4C52479179A95C20741645D8F930713
:105AA000F4FF3375F70093580701935F0E01B37746
:105AB000FE00B302F502B386C540B383F80293D566
:105AC00002013386AF021E962E963385F803637368
:105AD00076002295C168FD189355060133761601AC
